{
	"abi": [
		{
			"inputs": [
				{
					"internalType": "string",
					"name": "_uri",
					"type": "string"
				},
				{
					"internalType": "uint256",
					"name": "_rentPerDay",
					"type": "uint256"
				},
				{
					"internalType": "string",
					"name": "_description",
					"type": "string"
				},
				{
					"internalType": "string",
					"name": "_propertyType",
					"type": "string"
				},
				{
					"internalType": "address",
					"name": "_propertyOwner",
					"type": "address"
				},
				{
					"internalType": "string",
					"name": "_realWorldAddress",
					"type": "string"
				}
			],
			"stateMutability": "nonpayable",
			"type": "constructor"
		},
		{
			"inputs": [
				{
					"internalType": "uint256",
					"name": "day",
					"type": "uint256"
				},
				{
					"internalType": "address",
					"name": "tenant",
					"type": "address"
				}
			],
			"name": "BookingFailed",
			"type": "error"
		},
		{
			"inputs": [
				{
					"internalType": "uint256",
					"name": "day",
					"type": "uint256"
				},
				{
					"internalType": "address",
					"name": "tenant",
					"type": "address"
				}
			],
			"name": "CheckInFailed",
			"type": "error"
		},
		{
			"inputs": [
				{
					"internalType": "uint256",
					"name": "day",
					"type": "uint256"
				},
				{
					"internalType": "address",
					"name": "tenant",
					"type": "address"
				},
				{
					"internalType": "uint256",
					"name": "value",
					"type": "uint256"
				}
			],
			"name": "InvalidValueForRent",
			"type": "error"
		},
		{
			"anonymous": false,
			"inputs": [
				{
					"indexed": true,
					"internalType": "address",
					"name": "owner",
					"type": "address"
				},
				{
					"indexed": true,
					"internalType": "address",
					"name": "approved",
					"type": "address"
				},
				{
					"indexed": true,
					"internalType": "uint256",
					"name": "tokenId",
					"type": "uint256"
				}
			],
			"name": "Approval",
			"type": "event"
		},
		{
			"anonymous": false,
			"inputs": [
				{
					"indexed": true,
					"internalType": "address",
					"name": "owner",
					"type": "address"
				},
				{
					"indexed": true,
					"internalType": "address",
					"name": "operator",
					"type": "address"
				},
				{
					"indexed": false,
					"internalType": "bool",
					"name": "approved",
					"type": "bool"
				}
			],
			"name": "ApprovalForAll",
			"type": "event"
		},
		{
			"anonymous": false,
			"inputs": [
				{
					"indexed": false,
					"internalType": "uint256",
					"name": "_fromTokenId",
					"type": "uint256"
				},
				{
					"indexed": false,
					"internalType": "uint256",
					"name": "_toTokenId",
					"type": "uint256"
				}
			],
			"name": "BatchMetadataUpdate",
			"type": "event"
		},
		{
			"anonymous": false,
			"inputs": [
				{
					"indexed": false,
					"internalType": "uint256",
					"name": "day",
					"type": "uint256"
				},
				{
					"indexed": false,
					"internalType": "address",
					"name": "tenant",
					"type": "address"
				}
			],
			"name": "BookingError",
			"type": "event"
		},
		{
			"anonymous": false,
			"inputs": [
				{
					"indexed": false,
					"internalType": "uint256",
					"name": "day",
					"type": "uint256"
				},
				{
					"indexed": false,
					"internalType": "address",
					"name": "tenant",
					"type": "address"
				}
			],
			"name": "CheckIn",
			"type": "event"
		},
		{
			"anonymous": false,
			"inputs": [
				{
					"indexed": false,
					"internalType": "uint256",
					"name": "day",
					"type": "uint256"
				},
				{
					"indexed": false,
					"internalType": "address",
					"name": "tenant",
					"type": "address"
				}
			],
			"name": "CheckInError",
			"type": "event"
		},
		{
			"anonymous": false,
			"inputs": [
				{
					"indexed": false,
					"internalType": "uint256",
					"name": "_tokenId",
					"type": "uint256"
				}
			],
			"name": "MetadataUpdate",
			"type": "event"
		},
		{
			"anonymous": false,
			"inputs": [
				{
					"indexed": false,
					"internalType": "uint256",
					"name": "day",
					"type": "uint256"
				},
				{
					"indexed": false,
					"internalType": "address",
					"name": "tenant",
					"type": "address"
				}
			],
			"name": "NewBooking",
			"type": "event"
		},
		{
			"anonymous": false,
			"inputs": [
				{
					"indexed": true,
					"internalType": "address",
					"name": "previousOwner",
					"type": "address"
				},
				{
					"indexed": true,
					"internalType": "address",
					"name": "newOwner",
					"type": "address"
				}
			],
			"name": "OwnershipTransferred",
			"type": "event"
		},
		{
			"anonymous": false,
			"inputs": [
				{
					"indexed": true,
					"internalType": "bytes32",
					"name": "role",
					"type": "bytes32"
				},
				{
					"indexed": true,
					"internalType": "bytes32",
					"name": "previousAdminRole",
					"type": "bytes32"
				},
				{
					"indexed": true,
					"internalType": "bytes32",
					"name": "newAdminRole",
					"type": "bytes32"
				}
			],
			"name": "RoleAdminChanged",
			"type": "event"
		},
		{
			"anonymous": false,
			"inputs": [
				{
					"indexed": true,
					"internalType": "bytes32",
					"name": "role",
					"type": "bytes32"
				},
				{
					"indexed": true,
					"internalType": "address",
					"name": "account",
					"type": "address"
				},
				{
					"indexed": true,
					"internalType": "address",
					"name": "sender",
					"type": "address"
				}
			],
			"name": "RoleGranted",
			"type": "event"
		},
		{
			"anonymous": false,
			"inputs": [
				{
					"indexed": true,
					"internalType": "bytes32",
					"name": "role",
					"type": "bytes32"
				},
				{
					"indexed": true,
					"internalType": "address",
					"name": "account",
					"type": "address"
				},
				{
					"indexed": true,
					"internalType": "address",
					"name": "sender",
					"type": "address"
				}
			],
			"name": "RoleRevoked",
			"type": "event"
		},
		{
			"anonymous": false,
			"inputs": [
				{
					"indexed": true,
					"internalType": "address",
					"name": "from",
					"type": "address"
				},
				{
					"indexed": true,
					"internalType": "address",
					"name": "to",
					"type": "address"
				},
				{
					"indexed": true,
					"internalType": "uint256",
					"name": "tokenId",
					"type": "uint256"
				}
			],
			"name": "Transfer",
			"type": "event"
		},
		{
			"inputs": [],
			"name": "DEFAULT_ADMIN_ROLE",
			"outputs": [
				{
					"internalType": "bytes32",
					"name": "",
					"type": "bytes32"
				}
			],
			"stateMutability": "view",
			"type": "function"
		},
		{
			"inputs": [],
			"name": "OWNER_ROLE",
			"outputs": [
				{
					"internalType": "bytes32",
					"name": "",
					"type": "bytes32"
				}
			],
			"stateMutability": "view",
			"type": "function"
		},
		{
			"inputs": [
				{
					"internalType": "address",
					"name": "_newOwner",
					"type": "address"
				}
			],
			"name": "addNewOwner",
			"outputs": [],
			"stateMutability": "nonpayable",
			"type": "function"
		},
		{
			"inputs": [
				{
					"internalType": "address",
					"name": "to",
					"type": "address"
				},
				{
					"internalType": "uint256",
					"name": "tokenId",
					"type": "uint256"
				}
			],
			"name": "approve",
			"outputs": [],
			"stateMutability": "nonpayable",
			"type": "function"
		},
		{
			"inputs": [
				{
					"internalType": "address",
					"name": "owner",
					"type": "address"
				}
			],
			"name": "balanceOf",
			"outputs": [
				{
					"internalType": "uint256",
					"name": "",
					"type": "uint256"
				}
			],
			"stateMutability": "view",
			"type": "function"
		},
		{
			"inputs": [
				{
					"internalType": "uint256",
					"name": "_day",
					"type": "uint256"
				}
			],
			"name": "booking",
			"outputs": [],
			"stateMutability": "nonpayable",
			"type": "function"
		},
		{
			"inputs": [
				{
					"internalType": "uint256",
					"name": "day",
					"type": "uint256"
				},
				{
					"internalType": "address",
					"name": "_tenant",
					"type": "address"
				}
			],
			"name": "checkIn",
			"outputs": [
				{
					"internalType": "bool",
					"name": "",
					"type": "bool"
				}
			],
			"stateMutability": "view",
			"type": "function"
		},
		{
			"inputs": [
				{
					"internalType": "uint256",
					"name": "tokenId",
					"type": "uint256"
				}
			],
			"name": "getApproved",
			"outputs": [
				{
					"internalType": "address",
					"name": "",
					"type": "address"
				}
			],
			"stateMutability": "view",
			"type": "function"
		},
		{
			"inputs": [
				{
					"internalType": "bytes32",
					"name": "role",
					"type": "bytes32"
				}
			],
			"name": "getRoleAdmin",
			"outputs": [
				{
					"internalType": "bytes32",
					"name": "",
					"type": "bytes32"
				}
			],
			"stateMutability": "view",
			"type": "function"
		},
		{
			"inputs": [
				{
					"internalType": "bytes32",
					"name": "role",
					"type": "bytes32"
				},
				{
					"internalType": "address",
					"name": "account",
					"type": "address"
				}
			],
			"name": "grantRole",
			"outputs": [],
			"stateMutability": "nonpayable",
			"type": "function"
		},
		{
			"inputs": [
				{
					"internalType": "bytes32",
					"name": "role",
					"type": "bytes32"
				},
				{
					"internalType": "address",
					"name": "account",
					"type": "address"
				}
			],
			"name": "hasRole",
			"outputs": [
				{
					"internalType": "bool",
					"name": "",
					"type": "bool"
				}
			],
			"stateMutability": "view",
			"type": "function"
		},
		{
			"inputs": [
				{
					"internalType": "address",
					"name": "owner",
					"type": "address"
				},
				{
					"internalType": "address",
					"name": "operator",
					"type": "address"
				}
			],
			"name": "isApprovedForAll",
			"outputs": [
				{
					"internalType": "bool",
					"name": "",
					"type": "bool"
				}
			],
			"stateMutability": "view",
			"type": "function"
		},
		{
			"inputs": [],
			"name": "name",
			"outputs": [
				{
					"internalType": "string",
					"name": "",
					"type": "string"
				}
			],
			"stateMutability": "view",
			"type": "function"
		},
		{
			"inputs": [],
			"name": "owner",
			"outputs": [
				{
					"internalType": "address",
					"name": "",
					"type": "address"
				}
			],
			"stateMutability": "view",
			"type": "function"
		},
		{
			"inputs": [
				{
					"internalType": "uint256",
					"name": "tokenId",
					"type": "uint256"
				}
			],
			"name": "ownerOf",
			"outputs": [
				{
					"internalType": "address",
					"name": "",
					"type": "address"
				}
			],
			"stateMutability": "view",
			"type": "function"
		},
		{
			"inputs": [],
			"name": "property",
			"outputs": [
				{
					"internalType": "string",
					"name": "uri",
					"type": "string"
				},
				{
					"internalType": "uint256",
					"name": "rentPerDay",
					"type": "uint256"
				},
				{
					"internalType": "string",
					"name": "description",
					"type": "string"
				},
				{
					"internalType": "address",
					"name": "propertyOwner",
					"type": "address"
				},
				{
					"internalType": "string",
					"name": "propertyType",
					"type": "string"
				},
				{
					"internalType": "string",
					"name": "realWorldAddress",
					"type": "string"
				},
				{
					"internalType": "address",
					"name": "blockchainAddress",
					"type": "address"
				}
			],
			"stateMutability": "view",
			"type": "function"
		},
		{
			"inputs": [],
			"name": "renounceOwnership",
			"outputs": [],
			"stateMutability": "nonpayable",
			"type": "function"
		},
		{
			"inputs": [
				{
					"internalType": "bytes32",
					"name": "role",
					"type": "bytes32"
				},
				{
					"internalType": "address",
					"name": "account",
					"type": "address"
				}
			],
			"name": "renounceRole",
			"outputs": [],
			"stateMutability": "nonpayable",
			"type": "function"
		},
		{
			"inputs": [
				{
					"internalType": "bytes32",
					"name": "role",
					"type": "bytes32"
				},
				{
					"internalType": "address",
					"name": "account",
					"type": "address"
				}
			],
			"name": "revokeRole",
			"outputs": [],
			"stateMutability": "nonpayable",
			"type": "function"
		},
		{
			"inputs": [
				{
					"internalType": "address",
					"name": "from",
					"type": "address"
				},
				{
					"internalType": "address",
					"name": "to",
					"type": "address"
				},
				{
					"internalType": "uint256",
					"name": "tokenId",
					"type": "uint256"
				}
			],
			"name": "safeTransferFrom",
			"outputs": [],
			"stateMutability": "nonpayable",
			"type": "function"
		},
		{
			"inputs": [
				{
					"internalType": "address",
					"name": "from",
					"type": "address"
				},
				{
					"internalType": "address",
					"name": "to",
					"type": "address"
				},
				{
					"internalType": "uint256",
					"name": "tokenId",
					"type": "uint256"
				},
				{
					"internalType": "bytes",
					"name": "data",
					"type": "bytes"
				}
			],
			"name": "safeTransferFrom",
			"outputs": [],
			"stateMutability": "nonpayable",
			"type": "function"
		},
		{
			"inputs": [
				{
					"internalType": "address",
					"name": "operator",
					"type": "address"
				},
				{
					"internalType": "bool",
					"name": "approved",
					"type": "bool"
				}
			],
			"name": "setApprovalForAll",
			"outputs": [],
			"stateMutability": "nonpayable",
			"type": "function"
		},
		{
			"inputs": [
				{
					"internalType": "bytes4",
					"name": "interfaceId",
					"type": "bytes4"
				}
			],
			"name": "supportsInterface",
			"outputs": [
				{
					"internalType": "bool",
					"name": "",
					"type": "bool"
				}
			],
			"stateMutability": "view",
			"type": "function"
		},
		{
			"inputs": [],
			"name": "symbol",
			"outputs": [
				{
					"internalType": "string",
					"name": "",
					"type": "string"
				}
			],
			"stateMutability": "view",
			"type": "function"
		},
		{
			"inputs": [
				{
					"internalType": "uint256",
					"name": "tokenId",
					"type": "uint256"
				}
			],
			"name": "tokenURI",
			"outputs": [
				{
					"internalType": "string",
					"name": "",
					"type": "string"
				}
			],
			"stateMutability": "view",
			"type": "function"
		},
		{
			"inputs": [
				{
					"internalType": "address",
					"name": "from",
					"type": "address"
				},
				{
					"internalType": "address",
					"name": "to",
					"type": "address"
				},
				{
					"internalType": "uint256",
					"name": "tokenId",
					"type": "uint256"
				}
			],
			"name": "transferFrom",
			"outputs": [],
			"stateMutability": "nonpayable",
			"type": "function"
		},
		{
			"inputs": [
				{
					"internalType": "address",
					"name": "newOwner",
					"type": "address"
				}
			],
			"name": "transferOwnership",
			"outputs": [],
			"stateMutability": "nonpayable",
			"type": "function"
		},
		{
			"inputs": [
				{
					"internalType": "uint256",
					"name": "_rentPerDay",
					"type": "uint256"
				}
			],
			"name": "updateRentPerDay",
			"outputs": [],
			"stateMutability": "nonpayable",
			"type": "function"
		},
		{
			"inputs": [
				{
					"internalType": "string",
					"name": "_uri",
					"type": "string"
				}
			],
			"name": "updateUri",
			"outputs": [],
			"stateMutability": "nonpayable",
			"type": "function"
		}
	],
	"bytecode": {
		"object": "0x60806040523480156200001157600080fd5b50604051620029a3380380620029a383398101604081905262000034916200033d565b6040518060400160405280600781526020016626bcaa37b5b2b760c91b815250604051806040016040528060038152602001624d544b60e81b8152508160009081620000819190620004a0565b506001620000908282620004a0565b505050620000ad620000a76200016060201b60201c565b62000164565b6009620000bb8782620004a0565b50600a859055600b620000cf8582620004a0565b50600c80546001600160a01b0319166001600160a01b038416179055600d620000f98482620004a0565b50600e620001088282620004a0565b50600f80546001600160a01b0319163017905562000128600083620001b6565b620001547fb19546dff01e856fb3f010c267a7b1c60363cf8a4664e21cc89c26224620214e83620001b6565b5050505050506200056c565b3390565b600780546001600160a01b038381166001600160a01b0319831681179093556040519116919082907f8be0079c531659141344cd1fd0a4f28419497f9722a3daafe3b4186f6b6457e090600090a35050565b60008281526008602090815260408083206001600160a01b038516845290915290205460ff16620002575760008281526008602090815260408083206001600160a01b03851684529091529020805460ff19166001179055620002163390565b6001600160a01b0316816001600160a01b0316837f2f8788117e7eff1d82e926ec794901d17c78024a50270940304540a733656f0d60405160405180910390a45b5050565b634e487b7160e01b600052604160045260246000fd5b600082601f8301126200028357600080fd5b81516001600160401b0380821115620002a057620002a06200025b565b604051601f8301601f19908116603f01168101908282118183101715620002cb57620002cb6200025b565b81604052838152602092508683858801011115620002e857600080fd5b600091505b838210156200030c5785820183015181830184015290820190620002ed565b600093810190920192909252949350505050565b80516001600160a01b03811681146200033857600080fd5b919050565b60008060008060008060c087890312156200035757600080fd5b86516001600160401b03808211156200036f57600080fd5b6200037d8a838b0162000271565b97506020890151965060408901519150808211156200039b57600080fd5b620003a98a838b0162000271565b95506060890151915080821115620003c057600080fd5b620003ce8a838b0162000271565b9450620003de60808a0162000320565b935060a0890151915080821115620003f557600080fd5b506200040489828a0162000271565b9150509295509295509295565b600181811c908216806200042657607f821691505b6020821081036200044757634e487b7160e01b600052602260045260246000fd5b50919050565b601f8211156200049b57600081815260208120601f850160051c81016020861015620004765750805b601f850160051c820191505b81811015620004975782815560010162000482565b5050505b505050565b81516001600160401b03811115620004bc57620004bc6200025b565b620004d481620004cd845462000411565b846200044d565b602080601f8311600181146200050c5760008415620004f35750858301515b600019600386901b1c1916600185901b17855562000497565b600085815260208120601f198616915b828110156200053d578886015182559484019460019091019084016200051c565b50858210156200055c5787850151600019600388901b60f8161c191681555b5050505050600190811b01905550565b612427806200057c6000396000f3fe608060405234801561001057600080fd5b50600436106101cf5760003560e01c806370a0823111610104578063a22cb465116100a2578063d547741f11610071578063d547741f146103ff578063e58378bb14610412578063e985e9c514610427578063f2fde38b1461046357600080fd5b8063a22cb46514610397578063ad8d5eff146103aa578063b88d4fde146103d9578063c87b56dd146103ec57600080fd5b80638da5cb5b116100de5780638da5cb5b1461036357806391d148541461037457806395d89b4114610387578063a217fddf1461038f57600080fd5b806370a0823114610335578063715018a6146103485780638a53becf1461035057600080fd5b8063248a9ca31161017157806336568abe1161014b57806336568abe146102e957806342842e0e146102fc578063570b3c6a1461030f5780636352211e1461032257600080fd5b8063248a9ca3146102925780632f2ff15d146102c3578063358dc19c146102d657600080fd5b8063095ea7b3116101ad578063095ea7b31461023c578063114d8be114610251578063176fd3f01461026457806323b872dd1461027f57600080fd5b806301ffc9a7146101d457806306fdde03146101fc578063081812fc14610211575b600080fd5b6101e76101e2366004611ca5565b610476565b60405190151581526020015b60405180910390f35b610204610487565b6040516101f39190611d12565b61022461021f366004611d25565b610519565b6040516001600160a01b0390911681526020016101f3565b61024f61024a366004611d5a565b610540565b005b61024f61025f366004611d84565b61065a565b61026c61068e565b6040516101f39796959493929190611d9f565b61024f61028d366004611e1b565b6108f4565b6102b56102a0366004611d25565b60009081526008602052604090206001015490565b6040519081526020016101f3565b61024f6102d1366004611e57565b610925565b61024f6102e4366004611d25565b61094a565b61024f6102f7366004611e57565b610b1f565b61024f61030a366004611e1b565b610b99565b61024f61031d366004611f0f565b610bb4565b610224610330366004611d25565b610bd8565b6102b5610343366004611d84565b610c38565b61024f610cbe565b61024f61035e366004611d25565b610cd2565b6007546001600160a01b0316610224565b6101e7610382366004611e57565b610cf0565b610204610d1b565b6102b5600081565b61024f6103a5366004611f58565b610d2a565b6101e76103b8366004611e57565b600091825260106020526040909120546001600160a01b0391821691161490565b61024f6103e7366004611f94565b610d35565b6102046103fa366004611d25565b610d6d565b61024f61040d366004611e57565b610d78565b6102b56000805160206123d283398151915281565b6101e7610435366004612010565b6001600160a01b03918216600090815260056020908152604080832093909416825291909152205460ff1690565b61024f610471366004611d84565b610d9d565b600061048182610e16565b92915050565b6060600080546104969061203a565b80601f01602080910402602001604051908101604052809291908181526020018280546104c29061203a565b801561050f5780601f106104e45761010080835404028352916020019161050f565b820191906000526020600020905b8154815290600101906020018083116104f257829003601f168201915b5050505050905090565b600061052482610e3b565b506000908152600460205260409020546001600160a01b031690565b600061054b82610bd8565b9050806001600160a01b0316836001600160a01b0316036105bd5760405162461bcd60e51b815260206004820152602160248201527f4552433732313a20617070726f76616c20746f2063757272656e74206f776e656044820152603960f91b60648201526084015b60405180910390fd5b336001600160a01b03821614806105d957506105d98133610435565b61064b5760405162461bcd60e51b815260206004820152603d60248201527f4552433732313a20617070726f76652063616c6c6572206973206e6f7420746f60448201527f6b656e206f776e6572206f7220617070726f76656420666f7220616c6c00000060648201526084016105b4565b6106558383610e9a565b505050565b6000805160206123d283398151915261067281610f08565b61068a6000805160206123d283398151915283610f12565b5050565b60098054819061069d9061203a565b80601f01602080910402602001604051908101604052809291908181526020018280546106c99061203a565b80156107165780601f106106eb57610100808354040283529160200191610716565b820191906000526020600020905b8154815290600101906020018083116106f957829003601f168201915b5050505050908060010154908060020180546107319061203a565b80601f016020809104026020016040519081016040528092919081815260200182805461075d9061203a565b80156107aa5780601f1061077f576101008083540402835291602001916107aa565b820191906000526020600020905b81548152906001019060200180831161078d57829003601f168201915b505050600384015460048501805494956001600160a01b039092169491935091506107d49061203a565b80601f01602080910402602001604051908101604052809291908181526020018280546108009061203a565b801561084d5780601f106108225761010080835404028352916020019161084d565b820191906000526020600020905b81548152906001019060200180831161083057829003601f168201915b5050505050908060050180546108629061203a565b80601f016020809104026020016040519081016040528092919081815260200182805461088e9061203a565b80156108db5780601f106108b0576101008083540402835291602001916108db565b820191906000526020600020905b8154815290600101906020018083116108be57829003601f168201915b505050600690930154919250506001600160a01b031687565b6108fe3382610f98565b61091a5760405162461bcd60e51b81526004016105b490612074565b610655838383611017565b60008281526008602052604090206001015461094081610f08565b6106558383610f12565b600081815260106020526040902054600160a01b900460ff1615156001036109c657604080518281523360208201527f47288423cb506fa0f355681f4981a84ed3da5951b40e3c674f32794480c637a8910160405180910390a160405163c7a60e8560e01b8152600481018290523360248201526044016105b4565b60006109d160115490565b90506109e1601180546001019055565b6109eb338261117b565b610a8281600960000180546109ff9061203a565b80601f0160208091040260200160405190810160405280929190818152602001828054610a2b9061203a565b8015610a785780601f10610a4d57610100808354040283529160200191610a78565b820191906000526020600020905b815481529060010190602001808311610a5b57829003601f168201915b5050505050611195565b6040805180820182523380825260016020808401918252600087815260109091528490209251835491511515600160a01b026001600160a81b03199092166001600160a01b0391909116171790915590517fdf20c3c622ce9a1254251ce77bbabab09296abb1c4ce96f3eb9d65e2fc66286691610b13918591909182526001600160a01b0316602082015260400190565b60405180910390a15050565b6001600160a01b0381163314610b8f5760405162461bcd60e51b815260206004820152602f60248201527f416363657373436f6e74726f6c3a2063616e206f6e6c792072656e6f756e636560448201526e103937b632b9903337b91039b2b63360891b60648201526084016105b4565b61068a8282611259565b61065583838360405180602001604052806000815250610d35565b6000805160206123d2833981519152610bcc81610f08565b6009610655838261210f565b6000818152600260205260408120546001600160a01b0316806104815760405162461bcd60e51b8152602060048201526018602482015277115490cdcc8c4e881a5b9d985b1a59081d1bdad95b88125160421b60448201526064016105b4565b60006001600160a01b038216610ca25760405162461bcd60e51b815260206004820152602960248201527f4552433732313a2061646472657373207a65726f206973206e6f7420612076616044820152683634b21037bbb732b960b91b60648201526084016105b4565b506001600160a01b031660009081526003602052604090205490565b610cc66112c0565b610cd0600061131a565b565b6000805160206123d2833981519152610cea81610f08565b50600a55565b60009182526008602090815260408084206001600160a01b0393909316845291905290205460ff1690565b6060600180546104969061203a565b61068a33838361136c565b610d3f3383610f98565b610d5b5760405162461bcd60e51b81526004016105b490612074565b610d678484848461143a565b50505050565b60606104818261146d565b600082815260086020526040902060010154610d9381610f08565b6106558383611259565b610da56112c0565b6001600160a01b038116610e0a5760405162461bcd60e51b815260206004820152602660248201527f4f776e61626c653a206e6577206f776e657220697320746865207a65726f206160448201526564647265737360d01b60648201526084016105b4565b610e138161131a565b50565b60006001600160e01b03198216637965db0b60e01b1480610481575061048182611575565b6000818152600260205260409020546001600160a01b0316610e135760405162461bcd60e51b8152602060048201526018602482015277115490cdcc8c4e881a5b9d985b1a59081d1bdad95b88125160421b60448201526064016105b4565b600081815260046020526040902080546001600160a01b0319166001600160a01b0384169081179091558190610ecf82610bd8565b6001600160a01b03167f8c5be1e5ebec7d5bd14f71427d1e84f3dd0314c0f7b2291e5b200ac8c7c3b92560405160405180910390a45050565b610e13813361159a565b610f1c8282610cf0565b61068a5760008281526008602090815260408083206001600160a01b03851684529091529020805460ff19166001179055610f543390565b6001600160a01b0316816001600160a01b0316837f2f8788117e7eff1d82e926ec794901d17c78024a50270940304540a733656f0d60405160405180910390a45050565b600080610fa483610bd8565b9050806001600160a01b0316846001600160a01b03161480610feb57506001600160a01b0380821660009081526005602090815260408083209388168352929052205460ff165b8061100f5750836001600160a01b031661100484610519565b6001600160a01b0316145b949350505050565b826001600160a01b031661102a82610bd8565b6001600160a01b0316146110505760405162461bcd60e51b81526004016105b4906121cf565b6001600160a01b0382166110b25760405162461bcd60e51b8152602060048201526024808201527f4552433732313a207472616e7366657220746f20746865207a65726f206164646044820152637265737360e01b60648201526084016105b4565b826001600160a01b03166110c582610bd8565b6001600160a01b0316146110eb5760405162461bcd60e51b81526004016105b4906121cf565b600081815260046020908152604080832080546001600160a01b03199081169091556001600160a01b0387811680865260038552838620805460001901905590871680865283862080546001019055868652600290945282852080549092168417909155905184937fddf252ad1be2c89b69c2b068fc378daa952ba7f163c4a11628f55a4df523b3ef91a4505050565b61068a8282604051806020016040528060008152506115f3565b6000828152600260205260409020546001600160a01b03166112105760405162461bcd60e51b815260206004820152602e60248201527f45524337323155524953746f726167653a2055524920736574206f66206e6f6e60448201526d32bc34b9ba32b73a103a37b5b2b760911b60648201526084016105b4565b6000828152600660205260409020611228828261210f565b506040518281527ff8e1a15aba9398e019f0b49df1a4fde98ee17ae345cb5f6b5e2c27f5033e8ce790602001610b13565b6112638282610cf0565b1561068a5760008281526008602090815260408083206001600160a01b0385168085529252808320805460ff1916905551339285917ff6391f5c32d9c69d2a47ea670b442974b53935d1edc7fd64eb21e047a839171b9190a45050565b6007546001600160a01b03163314610cd05760405162461bcd60e51b815260206004820181905260248201527f4f776e61626c653a2063616c6c6572206973206e6f7420746865206f776e657260448201526064016105b4565b600780546001600160a01b038381166001600160a01b0319831681179093556040519116919082907f8be0079c531659141344cd1fd0a4f28419497f9722a3daafe3b4186f6b6457e090600090a35050565b816001600160a01b0316836001600160a01b0316036113cd5760405162461bcd60e51b815260206004820152601960248201527f4552433732313a20617070726f766520746f2063616c6c65720000000000000060448201526064016105b4565b6001600160a01b03838116600081815260056020908152604080832094871680845294825291829020805460ff191686151590811790915591519182527f17307eab39ab6107e8899845ad3d59bd9653f200f220920489ca2b5937696c31910160405180910390a3505050565b611445848484611017565b61145184848484611626565b610d675760405162461bcd60e51b81526004016105b490612214565b606061147882610e3b565b600082815260066020526040812080546114919061203a565b80601f01602080910402602001604051908101604052809291908181526020018280546114bd9061203a565b801561150a5780601f106114df5761010080835404028352916020019161150a565b820191906000526020600020905b8154815290600101906020018083116114ed57829003601f168201915b50505050509050600061152860408051602081019091526000815290565b9050805160000361153a575092915050565b81511561156c578082604051602001611554929190612266565b60405160208183030381529060405292505050919050565b61100f84611727565b60006001600160e01b03198216632483248360e11b148061048157506104818261179b565b6115a48282610cf0565b61068a576115b1816117eb565b6115bc8360206117fd565b6040516020016115cd929190612295565b60408051601f198184030181529082905262461bcd60e51b82526105b491600401611d12565b6115fd8383611999565b61160a6000848484611626565b6106555760405162461bcd60e51b81526004016105b490612214565b60006001600160a01b0384163b1561171c57604051630a85bd0160e11b81526001600160a01b0385169063150b7a029061166a90339089908890889060040161230a565b6020604051808303816000875af19250505080156116a5575060408051601f3d908101601f191682019092526116a291810190612347565b60015b611702573d8080156116d3576040519150601f19603f3d011682016040523d82523d6000602084013e6116d8565b606091505b5080516000036116fa5760405162461bcd60e51b81526004016105b490612214565b805181602001fd5b6001600160e01b031916630a85bd0160e11b14905061100f565b506001949350505050565b606061173282610e3b565b600061174960408051602081019091526000815290565b905060008151116117695760405180602001604052806000815250611794565b8061177384611b24565b604051602001611784929190612266565b6040516020818303038152906040525b9392505050565b60006001600160e01b031982166380ac58cd60e01b14806117cc57506001600160e01b03198216635b5e139f60e01b145b8061048157506301ffc9a760e01b6001600160e01b0319831614610481565b60606104816001600160a01b03831660145b6060600061180c83600261237a565b611817906002612391565b67ffffffffffffffff81111561182f5761182f611e83565b6040519080825280601f01601f191660200182016040528015611859576020820181803683370190505b509050600360fc1b81600081518110611874576118746123a4565b60200101906001600160f81b031916908160001a905350600f60fb1b816001815181106118a3576118a36123a4565b60200101906001600160f81b031916908160001a90535060006118c784600261237a565b6118d2906001612391565b90505b600181111561194a576f181899199a1a9b1b9c1cb0b131b232b360811b85600f1660108110611906576119066123a4565b1a60f81b82828151811061191c5761191c6123a4565b60200101906001600160f81b031916908160001a90535060049490941c93611943816123ba565b90506118d5565b5083156117945760405162461bcd60e51b815260206004820181905260248201527f537472696e67733a20686578206c656e67746820696e73756666696369656e7460448201526064016105b4565b6001600160a01b0382166119ef5760405162461bcd60e51b815260206004820181905260248201527f4552433732313a206d696e7420746f20746865207a65726f206164647265737360448201526064016105b4565b6000818152600260205260409020546001600160a01b031615611a545760405162461bcd60e51b815260206004820152601c60248201527f4552433732313a20746f6b656e20616c7265616479206d696e7465640000000060448201526064016105b4565b6000818152600260205260409020546001600160a01b031615611ab95760405162461bcd60e51b815260206004820152601c60248201527f4552433732313a20746f6b656e20616c7265616479206d696e7465640000000060448201526064016105b4565b6001600160a01b038216600081815260036020908152604080832080546001019055848352600290915280822080546001600160a01b0319168417905551839291907fddf252ad1be2c89b69c2b068fc378daa952ba7f163c4a11628f55a4df523b3ef908290a45050565b60606000611b3183611bb7565b600101905060008167ffffffffffffffff811115611b5157611b51611e83565b6040519080825280601f01601f191660200182016040528015611b7b576020820181803683370190505b5090508181016020015b600019016f181899199a1a9b1b9c1cb0b131b232b360811b600a86061a8153600a8504945084611b8557509392505050565b60008072184f03e93ff9f4daa797ed6e38ed64bf6a1f0160401b8310611bf65772184f03e93ff9f4daa797ed6e38ed64bf6a1f0160401b830492506040015b6d04ee2d6d415b85acef81000000008310611c22576d04ee2d6d415b85acef8100000000830492506020015b662386f26fc100008310611c4057662386f26fc10000830492506010015b6305f5e1008310611c58576305f5e100830492506008015b6127108310611c6c57612710830492506004015b60648310611c7e576064830492506002015b600a83106104815760010192915050565b6001600160e01b031981168114610e1357600080fd5b600060208284031215611cb757600080fd5b813561179481611c8f565b60005b83811015611cdd578181015183820152602001611cc5565b50506000910152565b60008151808452611cfe816020860160208601611cc2565b601f01601f19169290920160200192915050565b6020815260006117946020830184611ce6565b600060208284031215611d3757600080fd5b5035919050565b80356001600160a01b0381168114611d5557600080fd5b919050565b60008060408385031215611d6d57600080fd5b611d7683611d3e565b946020939093013593505050565b600060208284031215611d9657600080fd5b61179482611d3e565b60e081526000611db260e083018a611ce6565b8860208401528281036040840152611dca8189611ce6565b6001600160a01b0388811660608601528482036080860152909150611def8288611ce6565b915083820360a0850152611e038287611ce6565b925080851660c0850152505098975050505050505050565b600080600060608486031215611e3057600080fd5b611e3984611d3e565b9250611e4760208501611d3e565b9150604084013590509250925092565b60008060408385031215611e6a57600080fd5b82359150611e7a60208401611d3e565b90509250929050565b634e487b7160e01b600052604160045260246000fd5b600067ffffffffffffffff80841115611eb457611eb4611e83565b604051601f8501601f19908116603f01168101908282118183101715611edc57611edc611e83565b81604052809350858152868686011115611ef557600080fd5b858560208301376000602087830101525050509392505050565b600060208284031215611f2157600080fd5b813567ffffffffffffffff811115611f3857600080fd5b8201601f81018413611f4957600080fd5b61100f84823560208401611e99565b60008060408385031215611f6b57600080fd5b611f7483611d3e565b915060208301358015158114611f8957600080fd5b809150509250929050565b60008060008060808587031215611faa57600080fd5b611fb385611d3e565b9350611fc160208601611d3e565b925060408501359150606085013567ffffffffffffffff811115611fe457600080fd5b8501601f81018713611ff557600080fd5b61200487823560208401611e99565b91505092959194509250565b6000806040838503121561202357600080fd5b61202c83611d3e565b9150611e7a60208401611d3e565b600181811c9082168061204e57607f821691505b60208210810361206e57634e487b7160e01b600052602260045260246000fd5b50919050565b6020808252602d908201527f4552433732313a2063616c6c6572206973206e6f7420746f6b656e206f776e6560408201526c1c881bdc88185c1c1c9bdd9959609a1b606082015260800190565b601f82111561065557600081815260208120601f850160051c810160208610156120e85750805b601f850160051c820191505b81811015612107578281556001016120f4565b505050505050565b815167ffffffffffffffff81111561212957612129611e83565b61213d81612137845461203a565b846120c1565b602080601f831160018114612172576000841561215a5750858301515b600019600386901b1c1916600185901b178555612107565b600085815260208120601f198616915b828110156121a157888601518255948401946001909101908401612182565b50858210156121bf5787850151600019600388901b60f8161c191681555b5050505050600190811b01905550565b60208082526025908201527f4552433732313a207472616e736665722066726f6d20696e636f72726563742060408201526437bbb732b960d91b606082015260800190565b60208082526032908201527f4552433732313a207472616e7366657220746f206e6f6e20455243373231526560408201527131b2b4bb32b91034b6b83632b6b2b73a32b960711b606082015260800190565b60008351612278818460208801611cc2565b83519083019061228c818360208801611cc2565b01949350505050565b7f416363657373436f6e74726f6c3a206163636f756e74200000000000000000008152600083516122cd816017850160208801611cc2565b7001034b99036b4b9b9b4b733903937b6329607d1b60179184019182015283516122fe816028840160208801611cc2565b01602801949350505050565b6001600160a01b038581168252841660208201526040810183905260806060820181905260009061233d90830184611ce6565b9695505050505050565b60006020828403121561235957600080fd5b815161179481611c8f565b634e487b7160e01b600052601160045260246000fd5b808202811582820484141761048157610481612364565b8082018082111561048157610481612364565b634e487b7160e01b600052603260045260246000fd5b6000816123c9576123c9612364565b50600019019056feb19546dff01e856fb3f010c267a7b1c60363cf8a4664e21cc89c26224620214ea264697066735822122031efff75cbddf42e70c481e8e2c98dc8c1e520d5c75410ed6f48da224ce5a4d964736f6c63430008130033",
		"linkReferences": {}
	},
	"methodIdentifiers": {
		"DEFAULT_ADMIN_ROLE()": "a217fddf",
		"OWNER_ROLE()": "e58378bb",
		"addNewOwner(address)": "114d8be1",
		"approve(address,uint256)": "095ea7b3",
		"balanceOf(address)": "70a08231",
		"booking(uint256)": "358dc19c",
		"checkIn(uint256,address)": "ad8d5eff",
		"getApproved(uint256)": "081812fc",
		"getRoleAdmin(bytes32)": "248a9ca3",
		"grantRole(bytes32,address)": "2f2ff15d",
		"hasRole(bytes32,address)": "91d14854",
		"isApprovedForAll(address,address)": "e985e9c5",
		"name()": "06fdde03",
		"owner()": "8da5cb5b",
		"ownerOf(uint256)": "6352211e",
		"property()": "176fd3f0",
		"renounceOwnership()": "715018a6",
		"renounceRole(bytes32,address)": "36568abe",
		"revokeRole(bytes32,address)": "d547741f",
		"safeTransferFrom(address,address,uint256)": "42842e0e",
		"safeTransferFrom(address,address,uint256,bytes)": "b88d4fde",
		"setApprovalForAll(address,bool)": "a22cb465",
		"supportsInterface(bytes4)": "01ffc9a7",
		"symbol()": "95d89b41",
		"tokenURI(uint256)": "c87b56dd",
		"transferFrom(address,address,uint256)": "23b872dd",
		"transferOwnership(address)": "f2fde38b",
		"updateRentPerDay(uint256)": "8a53becf",
		"updateUri(string)": "570b3c6a"
	},
	"id": 43
}